{
  "contractName": "DoraFactory",
  "abi": [
    {
      "constant": false,
      "inputs": [],
      "name": "renounceOwnership",
      "outputs": [],
      "payable": false,
      "stateMutability": "nonpayable",
      "type": "function"
    },
    {
      "constant": true,
      "inputs": [],
      "name": "owner",
      "outputs": [
        {
          "name": "",
          "type": "address"
        }
      ],
      "payable": false,
      "stateMutability": "view",
      "type": "function"
    },
    {
      "constant": true,
      "inputs": [],
      "name": "isOwner",
      "outputs": [
        {
          "name": "",
          "type": "bool"
        }
      ],
      "payable": false,
      "stateMutability": "view",
      "type": "function"
    },
    {
      "constant": false,
      "inputs": [
        {
          "name": "newOwner",
          "type": "address"
        }
      ],
      "name": "transferOwnership",
      "outputs": [],
      "payable": false,
      "stateMutability": "nonpayable",
      "type": "function"
    },
    {
      "inputs": [],
      "payable": false,
      "stateMutability": "nonpayable",
      "type": "constructor"
    },
    {
      "anonymous": false,
      "inputs": [
        {
          "indexed": true,
          "name": "dora",
          "type": "address"
        },
        {
          "indexed": true,
          "name": "asker",
          "type": "address"
        }
      ],
      "name": "QuestionAsked",
      "type": "event"
    },
    {
      "anonymous": false,
      "inputs": [
        {
          "indexed": true,
          "name": "dora",
          "type": "address"
        },
        {
          "indexed": true,
          "name": "answerer",
          "type": "address"
        }
      ],
      "name": "QuestionAnswered",
      "type": "event"
    },
    {
      "anonymous": false,
      "inputs": [
        {
          "indexed": true,
          "name": "dora",
          "type": "address"
        },
        {
          "indexed": true,
          "name": "winner",
          "type": "address"
        }
      ],
      "name": "WinnerPicked",
      "type": "event"
    },
    {
      "anonymous": false,
      "inputs": [
        {
          "indexed": true,
          "name": "previousOwner",
          "type": "address"
        },
        {
          "indexed": true,
          "name": "newOwner",
          "type": "address"
        }
      ],
      "name": "OwnershipTransferred",
      "type": "event"
    },
    {
      "constant": false,
      "inputs": [
        {
          "name": "_question",
          "type": "string"
        }
      ],
      "name": "createDora",
      "outputs": [
        {
          "name": "",
          "type": "address"
        }
      ],
      "payable": true,
      "stateMutability": "payable",
      "type": "function"
    },
    {
      "constant": false,
      "inputs": [
        {
          "name": "_dora",
          "type": "address"
        },
        {
          "name": "_answerer",
          "type": "address"
        }
      ],
      "name": "registerAnswered",
      "outputs": [],
      "payable": false,
      "stateMutability": "nonpayable",
      "type": "function"
    },
    {
      "constant": false,
      "inputs": [
        {
          "name": "_dora",
          "type": "address"
        },
        {
          "name": "_winner",
          "type": "address"
        }
      ],
      "name": "registerWinner",
      "outputs": [],
      "payable": false,
      "stateMutability": "nonpayable",
      "type": "function"
    }
  ],
  "bytecode": "0x608060405234801561001057600080fd5b50336000806101000a81548173ffffffffffffffffffffffffffffffffffffffff021916908373ffffffffffffffffffffffffffffffffffffffff1602179055506000809054906101000a900473ffffffffffffffffffffffffffffffffffffffff1673ffffffffffffffffffffffffffffffffffffffff16600073ffffffffffffffffffffffffffffffffffffffff167f8be0079c531659141344cd1fd0a4f28419497f9722a3daafe3b4186f6b6457e060405160405180910390a361210f806100dc6000396000f300608060405260043610610083576000357c0100000000000000000000000000000000000000000000000000000000900463ffffffff168063132daf0814610088578063715018a6146100eb5780638da5cb5b146101025780638f32d59b14610159578063c065915614610188578063e6e4d6c114610224578063f2fde38b14610287575b600080fd5b34801561009457600080fd5b506100e9600480360381019080803573ffffffffffffffffffffffffffffffffffffffff169060200190929190803573ffffffffffffffffffffffffffffffffffffffff1690602001909291905050506102ca565b005b3480156100f757600080fd5b50610100610328565b005b34801561010e57600080fd5b506101176103fa565b604051808273ffffffffffffffffffffffffffffffffffffffff1673ffffffffffffffffffffffffffffffffffffffff16815260200191505060405180910390f35b34801561016557600080fd5b5061016e610423565b604051808215151515815260200191505060405180910390f35b6101e2600480360381019080803590602001908201803590602001908080601f016020809104026020016040519081016040528093929190818152602001838380828437820191505050505050919291929050505061047a565b604051808273ffffffffffffffffffffffffffffffffffffffff1673ffffffffffffffffffffffffffffffffffffffff16815260200191505060405180910390f35b34801561023057600080fd5b50610285600480360381019080803573ffffffffffffffffffffffffffffffffffffffff169060200190929190803573ffffffffffffffffffffffffffffffffffffffff169060200190929190505050610659565b005b34801561029357600080fd5b506102c8600480360381019080803573ffffffffffffffffffffffffffffffffffffffff1690602001909291905050506106b7565b005b8073ffffffffffffffffffffffffffffffffffffffff168273ffffffffffffffffffffffffffffffffffffffff167f01b0bb0c17cefd0e7dda704cfc0b870925e537e66476201edb4823dfa292e6a360405160405180910390a35050565b610330610423565b151561033b57600080fd5b600073ffffffffffffffffffffffffffffffffffffffff166000809054906101000a900473ffffffffffffffffffffffffffffffffffffffff1673ffffffffffffffffffffffffffffffffffffffff167f8be0079c531659141344cd1fd0a4f28419497f9722a3daafe3b4186f6b6457e060405160405180910390a360008060006101000a81548173ffffffffffffffffffffffffffffffffffffffff021916908373ffffffffffffffffffffffffffffffffffffffff160217905550565b60008060009054906101000a900473ffffffffffffffffffffffffffffffffffffffff16905090565b60008060009054906101000a900473ffffffffffffffffffffffffffffffffffffffff1673ffffffffffffffffffffffffffffffffffffffff163373ffffffffffffffffffffffffffffffffffffffff1614905090565b6000806000341115156104f5576040517f08c379a00000000000000000000000000000000000000000000000000000000081526004018080602001828103825260088152602001807f4e6f2076616c756500000000000000000000000000000000000000000000000081525060200191505060405180910390fd5b343033856105016107d0565b808473ffffffffffffffffffffffffffffffffffffffff1673ffffffffffffffffffffffffffffffffffffffff1681526020018373ffffffffffffffffffffffffffffffffffffffff1673ffffffffffffffffffffffffffffffffffffffff16815260200180602001828103825283818151815260200191508051906020019080838360005b838110156105a2578082015181840152602081019050610587565b50505050905090810190601f1680156105cf5780820380516001836020036101000a031916815260200191505b509450505050506040518091039082f0801580156105f1573d6000803e3d6000fd5b50905090503373ffffffffffffffffffffffffffffffffffffffff168173ffffffffffffffffffffffffffffffffffffffff167fec89f46d2049726cccd692d2c63812505809788035ce52bd2849407633aa833560405160405180910390a380915050919050565b8073ffffffffffffffffffffffffffffffffffffffff168273ffffffffffffffffffffffffffffffffffffffff167f9564893dd5b99e0e0333b73669990fe235f0b0636af39ac3070bccd598091b0060405160405180910390a35050565b6106bf610423565b15156106ca57600080fd5b6106d3816106d6565b50565b600073ffffffffffffffffffffffffffffffffffffffff168173ffffffffffffffffffffffffffffffffffffffff161415151561071257600080fd5b8073ffffffffffffffffffffffffffffffffffffffff166000809054906101000a900473ffffffffffffffffffffffffffffffffffffffff1673ffffffffffffffffffffffffffffffffffffffff167f8be0079c531659141344cd1fd0a4f28419497f9722a3daafe3b4186f6b6457e060405160405180910390a3806000806101000a81548173ffffffffffffffffffffffffffffffffffffffff021916908373ffffffffffffffffffffffffffffffffffffffff16021790555050565b604051611903806107e183390190560060806040526040516200190338038062001903833981018060405281019080805190602001909291908051906020019092919080518201929190505050336000806101000a81548173ffffffffffffffffffffffffffffffffffffffff021916908373ffffffffffffffffffffffffffffffffffffffff1602179055506000809054906101000a900473ffffffffffffffffffffffffffffffffffffffff1673ffffffffffffffffffffffffffffffffffffffff16600073ffffffffffffffffffffffffffffffffffffffff167f8be0079c531659141344cd1fd0a4f28419497f9722a3daafe3b4186f6b6457e060405160405180910390a382600160006101000a81548173ffffffffffffffffffffffffffffffffffffffff021916908373ffffffffffffffffffffffffffffffffffffffff1602179055506200015382620001ed640100000000026401000000009004565b80600290805190602001906200016b929190620003db565b5060008060146101000a81548160ff021916908360028111156200018b57fe5b0217905550620001d7600a620001ba600b346200022f6401000000000262001313179091906401000000009004565b620002556401000000000262001337179091906401000000009004565b600581905550426003819055505050506200048a565b6200020662000289640100000000026401000000009004565b15156200021257600080fd5b6200022c81620002e0640100000000026401000000009004565b50565b600080821115156200024057600080fd5b81838115156200024c57fe5b04905092915050565b6000818302905060008314806200027757508183828115156200027457fe5b04145b15156200028357600080fd5b92915050565b60008060009054906101000a900473ffffffffffffffffffffffffffffffffffffffff1673ffffffffffffffffffffffffffffffffffffffff163373ffffffffffffffffffffffffffffffffffffffff1614905090565b600073ffffffffffffffffffffffffffffffffffffffff168173ffffffffffffffffffffffffffffffffffffffff16141515156200031d57600080fd5b8073ffffffffffffffffffffffffffffffffffffffff166000809054906101000a900473ffffffffffffffffffffffffffffffffffffffff1673ffffffffffffffffffffffffffffffffffffffff167f8be0079c531659141344cd1fd0a4f28419497f9722a3daafe3b4186f6b6457e060405160405180910390a3806000806101000a81548173ffffffffffffffffffffffffffffffffffffffff021916908373ffffffffffffffffffffffffffffffffffffffff16021790555050565b828054600181600116156101000203166002900490600052602060002090601f016020900481019282601f106200041e57805160ff19168380011785556200044f565b828001600101855582156200044f579182015b828111156200044e57825182559160200191906001019062000431565b5b5090506200045e919062000462565b5090565b6200048791905b808211156200048357600081600090555060010162000469565b5090565b90565b611469806200049a6000396000f3006080604052600436106100db576000357c0100000000000000000000000000000000000000000000000000000000900463ffffffff16806317599cc5146100e0578063200d2ed2146101b9578063228cb733146101f25780632f10809d1461021d5780633fad9ae0146102485780635a3dcffb146102d8578063715018a6146103415780638da5cb5b146103585780638f32d59b146103af578063c45a0155146103de578063c885bc5814610435578063cf09e0d01461044c578063dfbf53ae14610477578063f2fde38b1461053a578063f737d21d1461057d575b600080fd5b3480156100ec57600080fd5b5061010b600480360381019080803590602001909291905050506105aa565b60405180806020018373ffffffffffffffffffffffffffffffffffffffff1673ffffffffffffffffffffffffffffffffffffffff168152602001828103825284818151815260200191508051906020019080838360005b8381101561017d578082015181840152602081019050610162565b50505050905090810190601f1680156101aa5780820380516001836020036101000a031916815260200191505b50935050505060405180910390f35b3480156101c557600080fd5b506101ce610695565b604051808260028111156101de57fe5b60ff16815260200191505060405180910390f35b3480156101fe57600080fd5b506102076106a8565b6040518082815260200191505060405180910390f35b34801561022957600080fd5b506102326106ae565b6040518082815260200191505060405180910390f35b34801561025457600080fd5b5061025d6106b4565b6040518080602001828103825283818151815260200191508051906020019080838360005b8381101561029d578082015181840152602081019050610282565b50505050905090810190601f1680156102ca5780820380516001836020036101000a031916815260200191505b509250505060405180910390f35b3480156102e457600080fd5b5061033f600480360381019080803590602001908201803590602001908080601f0160208091040260200160405190810160405280939291908181526020018383808284378201915050505050509192919290505050610752565b005b34801561034d57600080fd5b50610356610a1a565b005b34801561036457600080fd5b5061036d610aec565b604051808273ffffffffffffffffffffffffffffffffffffffff1673ffffffffffffffffffffffffffffffffffffffff16815260200191505060405180910390f35b3480156103bb57600080fd5b506103c4610b15565b604051808215151515815260200191505060405180910390f35b3480156103ea57600080fd5b506103f3610b6c565b604051808273ffffffffffffffffffffffffffffffffffffffff1673ffffffffffffffffffffffffffffffffffffffff16815260200191505060405180910390f35b34801561044157600080fd5b5061044a610b92565b005b34801561045857600080fd5b50610461610d73565b6040518082815260200191505060405180910390f35b34801561048357600080fd5b5061048c610d79565b60405180806020018373ffffffffffffffffffffffffffffffffffffffff1673ffffffffffffffffffffffffffffffffffffffff168152602001828103825284818151815260200191508051906020019080838360005b838110156104fe5780820151818401526020810190506104e3565b50505050905090810190601f16801561052b5780820380516001836020036101000a031916815260200191505b50935050505060405180910390f35b34801561054657600080fd5b5061057b600480360381019080803573ffffffffffffffffffffffffffffffffffffffff169060200190929190505050610f1f565b005b34801561058957600080fd5b506105a860048036038101908080359060200190929190505050610f3e565b005b6006818154811015156105b957fe5b9060005260206000209060020201600091509050806000018054600181600116156101000203166002900480601f0160208091040260200160405190810160405280929190818152602001828054600181600116156101000203166002900480156106655780601f1061063a57610100808354040283529160200191610665565b820191906000526020600020905b81548152906001019060200180831161064857829003601f168201915b5050505050908060010160009054906101000a900473ffffffffffffffffffffffffffffffffffffffff16905082565b600060149054906101000a900460ff1681565b60055481565b60045481565b60028054600181600116156101000203166002900480601f01602080910402602001604051908101604052809291908181526020018280546001816001161561010002031660029004801561074a5780601f1061071f5761010080835404028352916020019161074a565b820191906000526020600020905b81548152906001019060200180831161072d57829003601f168201915b505050505081565b61075a611368565b60028081111561076657fe5b600060149054906101000a900460ff16600281111561078157fe5b141515156107f7576040517f08c379a000000000000000000000000000000000000000000000000000000000815260040180806020018281038252601e8152602001807f57696e6e657220686173206265656e207069636b656420616c7265616479000081525060200191505060405180910390fd5b60408051908101604052808381526020013373ffffffffffffffffffffffffffffffffffffffff16815250905060068190806001815401808255809150509060018203906000526020600020906002020160009091929091909150600082015181600001908051906020019061086e929190611398565b5060208201518160010160006101000a81548173ffffffffffffffffffffffffffffffffffffffff021916908373ffffffffffffffffffffffffffffffffffffffff160217905550505050600160028111156108c657fe5b600060149054906101000a900460ff1660028111156108e157fe5b14151561090d576001600060146101000a81548160ff0219169083600281111561090757fe5b02179055505b600160009054906101000a900473ffffffffffffffffffffffffffffffffffffffff1673ffffffffffffffffffffffffffffffffffffffff1663132daf0830336040518363ffffffff167c0100000000000000000000000000000000000000000000000000000000028152600401808373ffffffffffffffffffffffffffffffffffffffff1673ffffffffffffffffffffffffffffffffffffffff1681526020018273ffffffffffffffffffffffffffffffffffffffff1673ffffffffffffffffffffffffffffffffffffffff16815260200192505050600060405180830381600087803b1580156109fe57600080fd5b505af1158015610a12573d6000803e3d6000fd5b505050505050565b610a22610b15565b1515610a2d57600080fd5b600073ffffffffffffffffffffffffffffffffffffffff166000809054906101000a900473ffffffffffffffffffffffffffffffffffffffff1673ffffffffffffffffffffffffffffffffffffffff167f8be0079c531659141344cd1fd0a4f28419497f9722a3daafe3b4186f6b6457e060405160405180910390a360008060006101000a81548173ffffffffffffffffffffffffffffffffffffffff021916908373ffffffffffffffffffffffffffffffffffffffff160217905550565b60008060009054906101000a900473ffffffffffffffffffffffffffffffffffffffff16905090565b60008060009054906101000a900473ffffffffffffffffffffffffffffffffffffffff1673ffffffffffffffffffffffffffffffffffffffff163373ffffffffffffffffffffffffffffffffffffffff1614905090565b600160009054906101000a900473ffffffffffffffffffffffffffffffffffffffff1681565b600280811115610b9e57fe5b600060149054906101000a900460ff166002811115610bb957fe5b141515610c2e576040517f08c379a000000000000000000000000000000000000000000000000000000000815260040180806020018281038252601a8152602001807f57696e6e657220686173206e6f74206265656e207069636b656400000000000081525060200191505060405180910390fd5b6006600454815481101515610c3f57fe5b906000526020600020906002020160010160009054906101000a900473ffffffffffffffffffffffffffffffffffffffff1673ffffffffffffffffffffffffffffffffffffffff163373ffffffffffffffffffffffffffffffffffffffff16141515610d13576040517f08c379a000000000000000000000000000000000000000000000000000000000815260040180806020018281038252601e8152602001807f446964206e6f742070726f766964652077696e6e696e6720616e73776572000081525060200191505060405180910390fd5b3373ffffffffffffffffffffffffffffffffffffffff166108fc3073ffffffffffffffffffffffffffffffffffffffff16319081150290604051600060405180830381858888f19350505050158015610d70573d6000803e3d6000fd5b50565b60035481565b60606000600280811115610d8957fe5b600060149054906101000a900460ff166002811115610da457fe5b141515610e19576040517f08c379a000000000000000000000000000000000000000000000000000000000815260040180806020018281038252601a8152602001807f57696e6e657220686173206e6f74206265656e207069636b656400000000000081525060200191505060405180910390fd5b6006600454815481101515610e2a57fe5b90600052602060002090600202016000018054600181600116156101000203166002900480601f016020809104026020016040519081016040528092919081815260200182805460018160011615610100020316600290048015610ecf5780601f10610ea457610100808354040283529160200191610ecf565b820191906000526020600020905b815481529060010190602001808311610eb257829003601f168201915b505050505091506006600454815481101515610ee757fe5b906000526020600020906002020160010160009054906101000a900473ffffffffffffffffffffffffffffffffffffffff1690509091565b610f27610b15565b1515610f3257600080fd5b610f3b81611219565b50565b610f46610b15565b1515610f5157600080fd5b600280811115610f5d57fe5b600060149054906101000a900460ff166002811115610f7857fe5b14151515610fee576040517f08c379a000000000000000000000000000000000000000000000000000000000815260040180806020018281038252601e8152602001807f57696e6e657220686173206265656e207069636b656420616c7265616479000081525060200191505060405180910390fd5b62093a80600354014211151561106c576040517f08c379a00000000000000000000000000000000000000000000000000000000081526004018080602001828103825260188152602001807f546f6f206561726c7920746f207069636b2077696e6e6572000000000000000081525060200191505060405180910390fd5b6002600060146101000a81548160ff0219169083600281111561108b57fe5b02179055508060048190555061109f610aec565b73ffffffffffffffffffffffffffffffffffffffff166108fc6110e1600a6110d3606460055461131390919063ffffffff16565b61133790919063ffffffff16565b9081150290604051600060405180830381858888f1935050505015801561110c573d6000803e3d6000fd5b50600160009054906101000a900473ffffffffffffffffffffffffffffffffffffffff1673ffffffffffffffffffffffffffffffffffffffff1663e6e4d6c130336040518363ffffffff167c0100000000000000000000000000000000000000000000000000000000028152600401808373ffffffffffffffffffffffffffffffffffffffff1673ffffffffffffffffffffffffffffffffffffffff1681526020018273ffffffffffffffffffffffffffffffffffffffff1673ffffffffffffffffffffffffffffffffffffffff16815260200192505050600060405180830381600087803b1580156111fe57600080fd5b505af1158015611212573d6000803e3d6000fd5b5050505050565b600073ffffffffffffffffffffffffffffffffffffffff168173ffffffffffffffffffffffffffffffffffffffff161415151561125557600080fd5b8073ffffffffffffffffffffffffffffffffffffffff166000809054906101000a900473ffffffffffffffffffffffffffffffffffffffff1673ffffffffffffffffffffffffffffffffffffffff167f8be0079c531659141344cd1fd0a4f28419497f9722a3daafe3b4186f6b6457e060405160405180910390a3806000806101000a81548173ffffffffffffffffffffffffffffffffffffffff021916908373ffffffffffffffffffffffffffffffffffffffff16021790555050565b6000808211151561132357600080fd5b818381151561132e57fe5b04905092915050565b600081830290506000831480611357575081838281151561135457fe5b04145b151561136257600080fd5b92915050565b604080519081016040528060608152602001600073ffffffffffffffffffffffffffffffffffffffff1681525090565b828054600181600116156101000203166002900490600052602060002090601f016020900481019282601f106113d957805160ff1916838001178555611407565b82800160010185558215611407579182015b828111156114065782518255916020019190600101906113eb565b5b5090506114149190611418565b5090565b61143a91905b8082111561143657600081600090555060010161141e565b5090565b905600a165627a7a72305820ba929f1744639616afd4fb7e10a250c95f829a0daf11178203c45697751e5aae0029a165627a7a72305820293348a218375dea6ba5e6b6167426dd6fee3f094b0f4d47438c8ee3f73b29280029",
  "source": "pragma solidity ^0.4.24;\r\nimport \"../node_modules/openzeppelin-solidity/contracts/ownership/Ownable.sol\";\r\n\r\nlibrary SafeMath {\r\n    function add(uint a, uint b) internal pure returns (uint c) {\r\n        c = a + b;\r\n        require(c >= a);\r\n    }\r\n    function sub(uint a, uint b) internal pure returns (uint c) {\r\n        require(b <= a);\r\n        c = a - b;\r\n    }\r\n    function mul(uint a, uint b) internal pure returns (uint c) {\r\n        c = a * b;\r\n        require(a == 0 || c / a == b);\r\n    }\r\n    function div(uint a, uint b) internal pure returns (uint c) {\r\n        require(b > 0);\r\n        c = a / b;\r\n    }\r\n}\r\n\r\n\r\n/**\r\n * @title Dora Factory\r\n * @dev The decentralized quora (Dora) factory contract creates a question and transfers Ether \r\n * to the created smart contract. This amount includes the deposit of the asker and the reward for the answerer \r\n\r\n */\r\ncontract DoraFactory is Ownable {\r\n    using SafeMath for uint;\r\n     \r\n    event QuestionAsked(address indexed dora, address indexed asker);\r\n    event QuestionAnswered(address indexed dora, address indexed answerer);\r\n    event WinnerPicked(address indexed dora, address indexed winner);\r\n\r\n    constructor() public {\r\n    }    \r\n    \r\n    /** @dev Creates a question\r\n      * @param _question Question to be answered for reward in Ether\r\n      * @return address of created Dora\r\n     */\r\n    function createDora(string _question) public payable returns (address) {\r\n        require(msg.value > 0, \"No value\");\r\n    // Create new Dora and fund it with sent value and set 10% of this as deposit\r\n        address newDora = (new Dora).value(msg.value)(this, msg.sender, _question);\r\n    // Emit event\r\n        emit QuestionAsked(newDora,msg.sender);\r\n        return newDora;\r\n    }\r\n\r\n    function registerAnswered(address _dora, address _answerer) external {\r\n        emit QuestionAnswered(_dora, _answerer);\r\n    }\r\n\r\n    function registerWinner(address _dora, address _winner) external {\r\n        emit WinnerPicked(_dora, _winner);\r\n    }\r\n\r\n    \r\n}\r\n\r\n/**\r\n * @title Dora \r\n * @dev The decentralized quora (Dora) which contains the question. A reward is set when\r\n * the question is created. Everybody can answer the question and the creator of the question\r\n * picks a winner\r\n\r\n */\r\ncontract Dora is Ownable {\r\n    using SafeMath for uint;\r\n    enum Status {Asked, Answered, WinnerPicked}\r\n    Status public status;\r\n    \r\n    address public factory;\r\n    string public question;\r\n    uint public createdAt;\r\n    uint public selectedAnswerIndex;\r\n    uint public reward;\r\n    \r\n  \r\n    struct Answer {\r\n        string description;\r\n        address answerer;\r\n    }\r\n    \r\n    Answer[] public answers;\r\n    \r\n    /** @dev Creates a question\r\n      * @param _factory Dora factory address\r\n      * @param _creator Who asks the question\r\n      * @param _question Question\r\n     */    \r\n    constructor(address _factory, address _creator, string _question) public payable {\r\n        factory = _factory;\r\n        transferOwnership(_creator);\r\n        question = _question;\r\n        status = Status.Asked;\r\n        // 10% of sent ether is deposit\r\n        reward = (msg.value.div(11).mul(10));\r\n        createdAt = now;\r\n    \r\n    }\r\n       \r\n     /** @dev Post answer to question\r\n      * @param _answer Answer\r\n     */ \r\n    function postAnswer (string _answer) public {\r\n    // Can only answer if winner not picked already\r\n        require(status != Status.WinnerPicked, \"Winner has been picked already\"); \r\n    // Add answer to answers array\r\n        Answer memory newAnswer = Answer({\r\n            description: _answer,\r\n            answerer: msg.sender\r\n        });\r\n        \r\n        answers.push(newAnswer);\r\n    // Change status to answered\r\n        if (status != Status.Answered) status = Status.Answered;\r\n    \r\n    // Emit event in Factory\r\n        DoraFactory(factory).registerAnswered(address(this), msg.sender);\r\n\r\n    }  \r\n    \r\n    /** @dev Selects best answer\r\n      * @param _index Index of answers array\r\n    */\r\n    function pickWinner(uint _index) public onlyOwner() {\r\n        require(status != Status.WinnerPicked, \"Winner has been picked already\");\r\n        require(now > (createdAt + 1 weeks), \"Too early to pick winner\");\r\n    // set status to Winner picked\r\n        status = Status.WinnerPicked;\r\n    // set selected answers\r\n        selectedAnswerIndex = _index;\r\n\r\n    // Transfer deposit (10% of reward) back to creator\r\n        owner().transfer(reward.div(100).mul(10));\r\n        \r\n    // register in factory that winner is picked\r\n        DoraFactory(factory).registerWinner(address(this), msg.sender);\r\n    \r\n    }\r\n\r\n    /** @dev Winner can withdraw reward\r\n    */\r\n    function withdrawReward() public {\r\n        require(status == Status.WinnerPicked, \"Winner has not been picked\");\r\n        require(msg.sender == answers[selectedAnswerIndex].answerer, \"Did not provide winning answer\");\r\n        //Transfer reward to winner\r\n        msg.sender.transfer(address(this).balance);\r\n    }\r\n\r\n    /** @dev Gets best answer and address of answerer\r\n      * @return answer which cerator of question selected\r\n      * @return address of answerer\r\n     */\r\n    function winner() public view returns (string answer, address answerer) {\r\n        require(status == Status.WinnerPicked, \"Winner has not been picked\");\r\n        answer = answers[selectedAnswerIndex].description;\r\n        answerer = answers[selectedAnswerIndex].answerer;\r\n    }\r\n    \r\n\r\n\r\n}",
  "sourcePath": "C:\\Users\\Jan\\bootcamp\\final-project-hochbruj\\contracts\\Dora.sol",
  "compiler": {
    "name": "solc",
    "version": "0.4.24+commit.e67f0147.Emscripten.clang"
  },
  "schemaVersion": "2.0.1",
  "updatedAt": "2018-12-03T03:01:24.498Z"
}