{
  "contractName": "DoraFactory",
  "abi": [
    {
      "constant": false,
      "inputs": [],
      "name": "renounceOwnership",
      "outputs": [],
      "payable": false,
      "stateMutability": "nonpayable",
      "type": "function"
    },
    {
      "constant": true,
      "inputs": [],
      "name": "owner",
      "outputs": [
        {
          "name": "",
          "type": "address"
        }
      ],
      "payable": false,
      "stateMutability": "view",
      "type": "function"
    },
    {
      "constant": true,
      "inputs": [],
      "name": "isOwner",
      "outputs": [
        {
          "name": "",
          "type": "bool"
        }
      ],
      "payable": false,
      "stateMutability": "view",
      "type": "function"
    },
    {
      "constant": false,
      "inputs": [
        {
          "name": "newOwner",
          "type": "address"
        }
      ],
      "name": "transferOwnership",
      "outputs": [],
      "payable": false,
      "stateMutability": "nonpayable",
      "type": "function"
    },
    {
      "inputs": [],
      "payable": false,
      "stateMutability": "nonpayable",
      "type": "constructor"
    },
    {
      "anonymous": false,
      "inputs": [
        {
          "indexed": true,
          "name": "dora",
          "type": "address"
        },
        {
          "indexed": true,
          "name": "asker",
          "type": "address"
        }
      ],
      "name": "QuestionAsked",
      "type": "event"
    },
    {
      "anonymous": false,
      "inputs": [
        {
          "indexed": true,
          "name": "dora",
          "type": "address"
        },
        {
          "indexed": true,
          "name": "answerer",
          "type": "address"
        },
        {
          "indexed": false,
          "name": "index",
          "type": "uint256"
        }
      ],
      "name": "QuestionAnswered",
      "type": "event"
    },
    {
      "anonymous": false,
      "inputs": [
        {
          "indexed": true,
          "name": "dora",
          "type": "address"
        },
        {
          "indexed": true,
          "name": "winner",
          "type": "address"
        },
        {
          "indexed": false,
          "name": "index",
          "type": "uint256"
        }
      ],
      "name": "WinnerPicked",
      "type": "event"
    },
    {
      "anonymous": false,
      "inputs": [
        {
          "indexed": false,
          "name": "account",
          "type": "address"
        }
      ],
      "name": "Paused",
      "type": "event"
    },
    {
      "anonymous": false,
      "inputs": [
        {
          "indexed": false,
          "name": "account",
          "type": "address"
        }
      ],
      "name": "Unpaused",
      "type": "event"
    },
    {
      "anonymous": false,
      "inputs": [
        {
          "indexed": true,
          "name": "previousOwner",
          "type": "address"
        },
        {
          "indexed": true,
          "name": "newOwner",
          "type": "address"
        }
      ],
      "name": "OwnershipTransferred",
      "type": "event"
    },
    {
      "constant": false,
      "inputs": [
        {
          "name": "_question",
          "type": "string"
        }
      ],
      "name": "createDora",
      "outputs": [
        {
          "name": "",
          "type": "address"
        }
      ],
      "payable": true,
      "stateMutability": "payable",
      "type": "function"
    },
    {
      "constant": false,
      "inputs": [
        {
          "name": "_dora",
          "type": "address"
        },
        {
          "name": "_answerer",
          "type": "address"
        },
        {
          "name": "_index",
          "type": "uint256"
        }
      ],
      "name": "registerAnswered",
      "outputs": [],
      "payable": false,
      "stateMutability": "nonpayable",
      "type": "function"
    },
    {
      "constant": false,
      "inputs": [
        {
          "name": "_dora",
          "type": "address"
        },
        {
          "name": "_winner",
          "type": "address"
        },
        {
          "name": "_index",
          "type": "uint256"
        }
      ],
      "name": "registerWinner",
      "outputs": [],
      "payable": false,
      "stateMutability": "nonpayable",
      "type": "function"
    },
    {
      "constant": true,
      "inputs": [],
      "name": "paused",
      "outputs": [
        {
          "name": "",
          "type": "bool"
        }
      ],
      "payable": false,
      "stateMutability": "view",
      "type": "function"
    },
    {
      "constant": false,
      "inputs": [],
      "name": "pause",
      "outputs": [],
      "payable": false,
      "stateMutability": "nonpayable",
      "type": "function"
    },
    {
      "constant": false,
      "inputs": [],
      "name": "unpause",
      "outputs": [],
      "payable": false,
      "stateMutability": "nonpayable",
      "type": "function"
    }
  ],
  "bytecode": "0x608060405234801561001057600080fd5b50336000806101000a81548173ffffffffffffffffffffffffffffffffffffffff021916908373ffffffffffffffffffffffffffffffffffffffff1602179055506000809054906101000a900473ffffffffffffffffffffffffffffffffffffffff1673ffffffffffffffffffffffffffffffffffffffff16600073ffffffffffffffffffffffffffffffffffffffff167f8be0079c531659141344cd1fd0a4f28419497f9722a3daafe3b4186f6b6457e060405160405180910390a360008060146101000a81548160ff021916908315150217905550612761806100f66000396000f300608060405260043610620000af576000357c0100000000000000000000000000000000000000000000000000000000900463ffffffff1680633c6db41b14620000b45780633f4ba83a14620001245780635c975abb146200013e578063715018a614620001705780638456cb59146200018a5780638da5cb5b14620001a45780638f32d59b14620001fe578063ad9a23051462000230578063c065915614620002a0578063f2fde38b146200033e575b600080fd5b348015620000c157600080fd5b5062000122600480360381019080803573ffffffffffffffffffffffffffffffffffffffff169060200190929190803573ffffffffffffffffffffffffffffffffffffffff1690602001909291908035906020019092919050505062000384565b005b3480156200013157600080fd5b506200013c620003ee565b005b3480156200014b57600080fd5b50620001566200049f565b604051808215151515815260200191505060405180910390f35b3480156200017d57600080fd5b5062000188620004b5565b005b3480156200019757600080fd5b50620001a26200058a565b005b348015620001b157600080fd5b50620001bc6200063d565b604051808273ffffffffffffffffffffffffffffffffffffffff1673ffffffffffffffffffffffffffffffffffffffff16815260200191505060405180910390f35b3480156200020b57600080fd5b506200021662000666565b604051808215151515815260200191505060405180910390f35b3480156200023d57600080fd5b506200029e600480360381019080803573ffffffffffffffffffffffffffffffffffffffff169060200190929190803573ffffffffffffffffffffffffffffffffffffffff16906020019092919080359060200190929190505050620006bd565b005b620002fc600480360381019080803590602001908201803590602001908080601f016020809104026020016040519081016040528093929190818152602001838380828437820191505050505050919291929050505062000727565b604051808273ffffffffffffffffffffffffffffffffffffffff1673ffffffffffffffffffffffffffffffffffffffff16815260200191505060405180910390f35b3480156200034b57600080fd5b5062000382600480360381019080803573ffffffffffffffffffffffffffffffffffffffff1690602001909291905050506200092a565b005b8173ffffffffffffffffffffffffffffffffffffffff168373ffffffffffffffffffffffffffffffffffffffff167ffaec02d55458b4ed6b1aaa90443211c394d5e289d40d2904d5936396bf7ae9cf836040518082815260200191505060405180910390a3505050565b620003f862000666565b15156200040457600080fd5b600060149054906101000a900460ff1615156200042057600080fd5b60008060146101000a81548160ff0219169083151502179055507f5db9ee0a495bf2e6ff9c91a7834c1ba4fdd244a5e8aa4e537bd38aeae4b073aa33604051808273ffffffffffffffffffffffffffffffffffffffff1673ffffffffffffffffffffffffffffffffffffffff16815260200191505060405180910390a1565b60008060149054906101000a900460ff16905090565b620004bf62000666565b1515620004cb57600080fd5b600073ffffffffffffffffffffffffffffffffffffffff166000809054906101000a900473ffffffffffffffffffffffffffffffffffffffff1673ffffffffffffffffffffffffffffffffffffffff167f8be0079c531659141344cd1fd0a4f28419497f9722a3daafe3b4186f6b6457e060405160405180910390a360008060006101000a81548173ffffffffffffffffffffffffffffffffffffffff021916908373ffffffffffffffffffffffffffffffffffffffff160217905550565b6200059462000666565b1515620005a057600080fd5b600060149054906101000a900460ff16151515620005bd57600080fd5b6001600060146101000a81548160ff0219169083151502179055507f62e78cea01bee320cd4e420270b5ea74000d11b0c9f74754ebdbfc544b05a25833604051808273ffffffffffffffffffffffffffffffffffffffff1673ffffffffffffffffffffffffffffffffffffffff16815260200191505060405180910390a1565b60008060009054906101000a900473ffffffffffffffffffffffffffffffffffffffff16905090565b60008060009054906101000a900473ffffffffffffffffffffffffffffffffffffffff1673ffffffffffffffffffffffffffffffffffffffff163373ffffffffffffffffffffffffffffffffffffffff1614905090565b8173ffffffffffffffffffffffffffffffffffffffff168373ffffffffffffffffffffffffffffffffffffffff167fec142393a19df0050abd3ab67245030cd45977e09c747ab90b8140ec91884a5c836040518082815260200191505060405180910390a3505050565b600080600060149054906101000a900460ff161515156200074757600080fd5b600034111515620007c0576040517f08c379a00000000000000000000000000000000000000000000000000000000081526004018080602001828103825260088152602001807f4e6f2076616c756500000000000000000000000000000000000000000000000081525060200191505060405180910390fd5b34303385620007ce62000a49565b808473ffffffffffffffffffffffffffffffffffffffff1673ffffffffffffffffffffffffffffffffffffffff1681526020018373ffffffffffffffffffffffffffffffffffffffff1673ffffffffffffffffffffffffffffffffffffffff16815260200180602001828103825283818151815260200191508051906020019080838360005b838110156200087157808201518184015260208101905062000854565b50505050905090810190601f1680156200089f5780820380516001836020036101000a031916815260200191505b509450505050506040518091039082f080158015620008c2573d6000803e3d6000fd5b50905090503373ffffffffffffffffffffffffffffffffffffffff168173ffffffffffffffffffffffffffffffffffffffff167fec89f46d2049726cccd692d2c63812505809788035ce52bd2849407633aa833560405160405180910390a380915050919050565b6200093462000666565b15156200094057600080fd5b6200094b816200094e565b50565b600073ffffffffffffffffffffffffffffffffffffffff168173ffffffffffffffffffffffffffffffffffffffff16141515156200098b57600080fd5b8073ffffffffffffffffffffffffffffffffffffffff166000809054906101000a900473ffffffffffffffffffffffffffffffffffffffff1673ffffffffffffffffffffffffffffffffffffffff167f8be0079c531659141344cd1fd0a4f28419497f9722a3daafe3b4186f6b6457e060405160405180910390a3806000806101000a81548173ffffffffffffffffffffffffffffffffffffffff021916908373ffffffffffffffffffffffffffffffffffffffff16021790555050565b604051611cdb8062000a5b833901905600608060405260405162001cdb38038062001cdb833981018060405281019080805190602001909291908051906020019092919080518201929190505050336000806101000a81548173ffffffffffffffffffffffffffffffffffffffff021916908373ffffffffffffffffffffffffffffffffffffffff1602179055506000809054906101000a900473ffffffffffffffffffffffffffffffffffffffff1673ffffffffffffffffffffffffffffffffffffffff16600073ffffffffffffffffffffffffffffffffffffffff167f8be0079c531659141344cd1fd0a4f28419497f9722a3daafe3b4186f6b6457e060405160405180910390a382600160006101000a81548173ffffffffffffffffffffffffffffffffffffffff021916908373ffffffffffffffffffffffffffffffffffffffff160217905550620001538262000211640100000000026401000000009004565b80600290805190602001906200016b9291906200041c565b5060008060146101000a81548160ff021916908360038111156200018b57fe5b0217905550620001d7600a620001ba600b3462000253640100000000026200168e179091906401000000009004565b6200027964010000000002620016b2179091906401000000009004565b6005819055506200020261012c42620002ad64010000000002620017b8179091906401000000009004565b600381905550505050620004cb565b6200022a620002ca640100000000026401000000009004565b15156200023657600080fd5b620002508162000321640100000000026401000000009004565b50565b600080821115156200026457600080fd5b81838115156200027057fe5b04905092915050565b6000818302905060008314806200029b57508183828115156200029857fe5b04145b1515620002a757600080fd5b92915050565b60008183019050828110151515620002c457600080fd5b92915050565b60008060009054906101000a900473ffffffffffffffffffffffffffffffffffffffff1673ffffffffffffffffffffffffffffffffffffffff163373ffffffffffffffffffffffffffffffffffffffff1614905090565b600073ffffffffffffffffffffffffffffffffffffffff168173ffffffffffffffffffffffffffffffffffffffff16141515156200035e57600080fd5b8073ffffffffffffffffffffffffffffffffffffffff166000809054906101000a900473ffffffffffffffffffffffffffffffffffffffff1673ffffffffffffffffffffffffffffffffffffffff167f8be0079c531659141344cd1fd0a4f28419497f9722a3daafe3b4186f6b6457e060405160405180910390a3806000806101000a81548173ffffffffffffffffffffffffffffffffffffffff021916908373ffffffffffffffffffffffffffffffffffffffff16021790555050565b828054600181600116156101000203166002900490600052602060002090601f016020900481019282601f106200045f57805160ff191683800117855562000490565b8280016001018555821562000490579182015b828111156200048f57825182559160200191906001019062000472565b5b5090506200049f9190620004a3565b5090565b620004c891905b80821115620004c4576000816000905550600101620004aa565b5090565b90565b61180080620004db6000396000f3006080604052600436106100fc576000357c0100000000000000000000000000000000000000000000000000000000900463ffffffff16806317599cc514610101578063200d2ed2146101da578063228cb7331461021357806329dcb0cf1461023e5780632f10809d146102695780633fad9ae0146102945780634051ddac146103245780635a3dcffb146103e5578063715018a61461044e5780638da5cb5b146104655780638f32d59b146104bc578063a5cfa777146104eb578063ba5f21ec14610516578063c45a01551461052d578063c885bc5814610584578063dfbf53ae1461059b578063f2fde38b1461065e578063f737d21d146106a1575b600080fd5b34801561010d57600080fd5b5061012c600480360381019080803590602001909291905050506106ce565b60405180806020018373ffffffffffffffffffffffffffffffffffffffff1673ffffffffffffffffffffffffffffffffffffffff168152602001828103825284818151815260200191508051906020019080838360005b8381101561019e578082015181840152602081019050610183565b50505050905090810190601f1680156101cb5780820380516001836020036101000a031916815260200191505b50935050505060405180910390f35b3480156101e657600080fd5b506101ef6107b9565b604051808260038111156101ff57fe5b60ff16815260200191505060405180910390f35b34801561021f57600080fd5b506102286107cc565b6040518082815260200191505060405180910390f35b34801561024a57600080fd5b506102536107d2565b6040518082815260200191505060405180910390f35b34801561027557600080fd5b5061027e6107d8565b6040518082815260200191505060405180910390f35b3480156102a057600080fd5b506102a96107de565b6040518080602001828103825283818151815260200191508051906020019080838360005b838110156102e95780820151818401526020810190506102ce565b50505050905090810190601f1680156103165780820380516001836020036101000a031916815260200191505b509250505060405180910390f35b34801561033057600080fd5b5061033961087c565b604051808060200187815260200186815260200185600381111561035957fe5b60ff168152602001848152602001838152602001828103825288818151815260200191508051906020019080838360005b838110156103a557808201518184015260208101905061038a565b50505050905090810190601f1680156103d25780820380516001836020036101000a031916815260200191505b5097505050505050505060405180910390f35b3480156103f157600080fd5b5061044c600480360381019080803590602001908201803590602001908080601f0160208091040260200160405190810160405280939291908181526020018383808284378201915050505050509192919290505050610957565b005b34801561045a57600080fd5b50610463610c30565b005b34801561047157600080fd5b5061047a610d02565b604051808273ffffffffffffffffffffffffffffffffffffffff1673ffffffffffffffffffffffffffffffffffffffff16815260200191505060405180910390f35b3480156104c857600080fd5b506104d1610d2b565b604051808215151515815260200191505060405180910390f35b3480156104f757600080fd5b50610500610d82565b6040518082815260200191505060405180910390f35b34801561052257600080fd5b5061052b610d8f565b005b34801561053957600080fd5b50610542610ec3565b604051808273ffffffffffffffffffffffffffffffffffffffff1673ffffffffffffffffffffffffffffffffffffffff16815260200191505060405180910390f35b34801561059057600080fd5b50610599610ee9565b005b3480156105a757600080fd5b506105b06110ef565b60405180806020018373ffffffffffffffffffffffffffffffffffffffff1673ffffffffffffffffffffffffffffffffffffffff168152602001828103825284818151815260200191508051906020019080838360005b83811015610622578082015181840152602081019050610607565b50505050905090810190601f16801561064f5780820380516001836020036101000a031916815260200191505b50935050505060405180910390f35b34801561066a57600080fd5b5061069f600480360381019080803573ffffffffffffffffffffffffffffffffffffffff169060200190929190505050611296565b005b3480156106ad57600080fd5b506106cc600480360381019080803590602001909291905050506112b5565b005b6006818154811015156106dd57fe5b9060005260206000209060020201600091509050806000018054600181600116156101000203166002900480601f0160208091040260200160405190810160405280929190818152602001828054600181600116156101000203166002900480156107895780601f1061075e57610100808354040283529160200191610789565b820191906000526020600020905b81548152906001019060200180831161076c57829003601f168201915b5050505050908060010160009054906101000a900473ffffffffffffffffffffffffffffffffffffffff16905082565b600060149054906101000a900460ff1681565b60055481565b60035481565b60045481565b60028054600181600116156101000203166002900480601f0160208091040260200160405190810160405280929190818152602001828054600181600116156101000203166002900480156108745780601f1061084957610100808354040283529160200191610874565b820191906000526020600020905b81548152906001019060200180831161085757829003601f168201915b505050505081565b606060008060008060006002600554600354600060149054906101000a900460ff16600680549050600454858054600181600116156101000203166002900480601f01602080910402602001604051908101604052809291908181526020018280546001816001161561010002031660029004801561093c5780601f106109115761010080835404028352916020019161093c565b820191906000526020600020905b81548152906001019060200180831161091f57829003601f168201915b50505050509550955095509550955095509550909192939495565b61095f6116e3565b6002600381111561096c57fe5b600060149054906101000a900460ff16600381111561098757fe5b141515156109fd576040517f08c379a000000000000000000000000000000000000000000000000000000000815260040180806020018281038252601e8152602001807f57696e6e657220686173206265656e207069636b656420616c7265616479000081525060200191505060405180910390fd5b60408051908101604052808381526020013373ffffffffffffffffffffffffffffffffffffffff168152509050600681908060018154018082558091505090600182039060005260206000209060020201600090919290919091506000820151816000019080519060200190610a74929190611713565b5060208201518160010160006101000a81548173ffffffffffffffffffffffffffffffffffffffff021916908373ffffffffffffffffffffffffffffffffffffffff16021790555050505060016003811115610acc57fe5b600060149054906101000a900460ff166003811115610ae757fe5b141515610b13576001600060146101000a81548160ff02191690836003811115610b0d57fe5b02179055505b600160009054906101000a900473ffffffffffffffffffffffffffffffffffffffff1673ffffffffffffffffffffffffffffffffffffffff16633c6db41b30336001600680549050036040518463ffffffff167c0100000000000000000000000000000000000000000000000000000000028152600401808473ffffffffffffffffffffffffffffffffffffffff1673ffffffffffffffffffffffffffffffffffffffff1681526020018373ffffffffffffffffffffffffffffffffffffffff1673ffffffffffffffffffffffffffffffffffffffff1681526020018281526020019350505050600060405180830381600087803b158015610c1457600080fd5b505af1158015610c28573d6000803e3d6000fd5b505050505050565b610c38610d2b565b1515610c4357600080fd5b600073ffffffffffffffffffffffffffffffffffffffff166000809054906101000a900473ffffffffffffffffffffffffffffffffffffffff1673ffffffffffffffffffffffffffffffffffffffff167f8be0079c531659141344cd1fd0a4f28419497f9722a3daafe3b4186f6b6457e060405160405180910390a360008060006101000a81548173ffffffffffffffffffffffffffffffffffffffff021916908373ffffffffffffffffffffffffffffffffffffffff160217905550565b60008060009054906101000a900473ffffffffffffffffffffffffffffffffffffffff16905090565b60008060009054906101000a900473ffffffffffffffffffffffffffffffffffffffff1673ffffffffffffffffffffffffffffffffffffffff163373ffffffffffffffffffffffffffffffffffffffff1614905090565b6000600680549050905090565b610d97610d2b565b1515610da257600080fd5b60006003811115610daf57fe5b600060149054906101000a900460ff166003811115610dca57fe5b141515610e3f576040517f08c379a00000000000000000000000000000000000000000000000000000000081526004018080602001828103825260198152602001807f536f6d656f6e6520616e737765726564207175657374696f6e0000000000000081525060200191505060405180910390fd5b6003600060146101000a81548160ff02191690836003811115610e5e57fe5b02179055503373ffffffffffffffffffffffffffffffffffffffff166108fc3073ffffffffffffffffffffffffffffffffffffffff16319081150290604051600060405180830381858888f19350505050158015610ec0573d6000803e3d6000fd5b50565b600160009054906101000a900473ffffffffffffffffffffffffffffffffffffffff1681565b60026003811115610ef657fe5b600060149054906101000a900460ff166003811115610f1157fe5b141515610f86576040517f08c379a000000000000000000000000000000000000000000000000000000000815260040180806020018281038252601a8152602001807f57696e6e657220686173206e6f74206265656e207069636b656400000000000081525060200191505060405180910390fd5b6006600454815481101515610f9757fe5b906000526020600020906002020160010160009054906101000a900473ffffffffffffffffffffffffffffffffffffffff1673ffffffffffffffffffffffffffffffffffffffff163373ffffffffffffffffffffffffffffffffffffffff1614151561106b576040517f08c379a000000000000000000000000000000000000000000000000000000000815260040180806020018281038252601e8152602001807f446964206e6f742070726f766964652077696e6e696e6720616e73776572000081525060200191505060405180910390fd5b6003600060146101000a81548160ff0219169083600381111561108a57fe5b02179055503373ffffffffffffffffffffffffffffffffffffffff166108fc3073ffffffffffffffffffffffffffffffffffffffff16319081150290604051600060405180830381858888f193505050501580156110ec573d6000803e3d6000fd5b50565b606060006002600381111561110057fe5b600060149054906101000a900460ff16600381111561111b57fe5b141515611190576040517f08c379a000000000000000000000000000000000000000000000000000000000815260040180806020018281038252601a8152602001807f57696e6e657220686173206e6f74206265656e207069636b656400000000000081525060200191505060405180910390fd5b60066004548154811015156111a157fe5b90600052602060002090600202016000018054600181600116156101000203166002900480601f0160208091040260200160405190810160405280929190818152602001828054600181600116156101000203166002900480156112465780601f1061121b57610100808354040283529160200191611246565b820191906000526020600020905b81548152906001019060200180831161122957829003601f168201915b50505050509150600660045481548110151561125e57fe5b906000526020600020906002020160010160009054906101000a900473ffffffffffffffffffffffffffffffffffffffff1690509091565b61129e610d2b565b15156112a957600080fd5b6112b281611594565b50565b6112bd610d2b565b15156112c857600080fd5b600260038111156112d557fe5b600060149054906101000a900460ff1660038111156112f057fe5b14151515611366576040517f08c379a000000000000000000000000000000000000000000000000000000000815260040180806020018281038252601e8152602001807f57696e6e657220686173206265656e207069636b656420616c7265616479000081525060200191505060405180910390fd5b600354421115156113df576040517f08c379a00000000000000000000000000000000000000000000000000000000081526004018080602001828103825260188152602001807f546f6f206561726c7920746f207069636b2077696e6e6572000000000000000081525060200191505060405180910390fd5b6002600060146101000a81548160ff021916908360038111156113fe57fe5b021790555080600481905550611412610d02565b73ffffffffffffffffffffffffffffffffffffffff166108fc611454600a611446606460055461168e90919063ffffffff16565b6116b290919063ffffffff16565b9081150290604051600060405180830381858888f1935050505015801561147f573d6000803e3d6000fd5b50600160009054906101000a900473ffffffffffffffffffffffffffffffffffffffff1673ffffffffffffffffffffffffffffffffffffffff1663ad9a23053033846040518463ffffffff167c0100000000000000000000000000000000000000000000000000000000028152600401808473ffffffffffffffffffffffffffffffffffffffff1673ffffffffffffffffffffffffffffffffffffffff1681526020018373ffffffffffffffffffffffffffffffffffffffff1673ffffffffffffffffffffffffffffffffffffffff1681526020018281526020019350505050600060405180830381600087803b15801561157957600080fd5b505af115801561158d573d6000803e3d6000fd5b5050505050565b600073ffffffffffffffffffffffffffffffffffffffff168173ffffffffffffffffffffffffffffffffffffffff16141515156115d057600080fd5b8073ffffffffffffffffffffffffffffffffffffffff166000809054906101000a900473ffffffffffffffffffffffffffffffffffffffff1673ffffffffffffffffffffffffffffffffffffffff167f8be0079c531659141344cd1fd0a4f28419497f9722a3daafe3b4186f6b6457e060405160405180910390a3806000806101000a81548173ffffffffffffffffffffffffffffffffffffffff021916908373ffffffffffffffffffffffffffffffffffffffff16021790555050565b6000808211151561169e57600080fd5b81838115156116a957fe5b04905092915050565b6000818302905060008314806116d257508183828115156116cf57fe5b04145b15156116dd57600080fd5b92915050565b604080519081016040528060608152602001600073ffffffffffffffffffffffffffffffffffffffff1681525090565b828054600181600116156101000203166002900490600052602060002090601f016020900481019282601f1061175457805160ff1916838001178555611782565b82800160010185558215611782579182015b82811115611781578251825591602001919060010190611766565b5b50905061178f9190611793565b5090565b6117b591905b808211156117b1576000816000905550600101611799565b5090565b90565b600081830190508281101515156117ce57600080fd5b929150505600a165627a7a72305820899750056118ced0118721198c025da0798bf99d0fe819dbec90ec4484e5b2720029a165627a7a72305820894b402ada46db00d086f64b9e68a76bb52b611909f8183aaef22b8cdd7e45d90029",
  "source": "pragma solidity ^0.4.24;\r\nimport \"../node_modules/openzeppelin-solidity/contracts/ownership/Ownable.sol\";\r\n\r\nlibrary SafeMath {\r\n    function add(uint a, uint b) internal pure returns (uint c) {\r\n        c = a + b;\r\n        require(c >= a);\r\n    }\r\n    function sub(uint a, uint b) internal pure returns (uint c) {\r\n        require(b <= a);\r\n        c = a - b;\r\n    }\r\n    function mul(uint a, uint b) internal pure returns (uint c) {\r\n        c = a * b;\r\n        require(a == 0 || c / a == b);\r\n    }\r\n    function div(uint a, uint b) internal pure returns (uint c) {\r\n        require(b > 0);\r\n        c = a / b;\r\n    }\r\n}\r\n\r\n\r\n/**\r\n * @title Dora Factory\r\n * @dev The decentralized quora (Dora) factory contract creates a question and transfers Ether \r\n * to the created smart contract. This amount includes the deposit of the asker and the reward for the answerer \r\n\r\n */\r\ncontract DoraFactory is Ownable {\r\n    using SafeMath for uint;\r\n    bool private _paused;\r\n     \r\n    event QuestionAsked(address indexed dora, address indexed asker);\r\n    event QuestionAnswered(address indexed dora, address indexed answerer, uint index);\r\n    event WinnerPicked(address indexed dora, address indexed winner, uint index);\r\n\r\n    event Paused(address account);\r\n    event Unpaused(address account);\r\n\r\n    constructor() public {\r\n        _paused = false;\r\n    }    \r\n    \r\n    /** @dev Creates a question\r\n      * @param _question Question to be answered for reward in Ether\r\n      * @return address of created Dora\r\n     */\r\n    function createDora(string _question) public payable whenNotPaused returns (address) {\r\n        require(msg.value > 0, \"No value\");\r\n    // Create new Dora and fund it with sent value and set 10% of this as deposit\r\n        address newDora = (new Dora).value(msg.value)(this, msg.sender, _question);\r\n    // Emit event\r\n        emit QuestionAsked(newDora,msg.sender);\r\n        return newDora;\r\n    }\r\n\r\n    function registerAnswered(address _dora, address _answerer, uint _index) external {\r\n        emit QuestionAnswered(_dora, _answerer, _index);\r\n    }\r\n\r\n    function registerWinner(address _dora, address _winner, uint _index) external {\r\n        emit WinnerPicked(_dora, _winner, _index);\r\n    }\r\n\r\n    /**\r\n   * @dev Modifier to make a function callable only when the contract is not paused.\r\n   */\r\n    modifier whenNotPaused() {\r\n        require(!_paused);\r\n        _;\r\n    }\r\n\r\n  /**\r\n   * @dev Modifier to make a function callable only when the contract is paused.\r\n   */\r\n    modifier whenPaused() {\r\n        require(_paused);\r\n        _;\r\n    }\r\n\r\n     /**\r\n       * @return true if the contract is paused, false otherwise.\r\n     */\r\n    function paused() public view returns(bool) {\r\n        return _paused;\r\n    }\r\n\r\n    /**\r\n   * @dev called by the owner to pause, triggers stopped state\r\n   */\r\n    function pause() public onlyOwner() whenNotPaused {\r\n        _paused = true;\r\n        emit Paused(msg.sender);\r\n    }\r\n\r\n  /**\r\n   * @dev called by the owner to unpause, returns to normal state\r\n   */\r\n    function unpause() public onlyOwner() whenPaused {\r\n        _paused = false;\r\n        emit Unpaused(msg.sender);\r\n    }\r\n\r\n    \r\n}\r\n\r\n/**\r\n * @title Dora \r\n * @dev The decentralized quora (Dora) which contains the question. A reward is set when\r\n * the question is created. Everybody can answer the question and the creator of the question\r\n * picks a winner\r\n\r\n */\r\ncontract Dora is Ownable {\r\n    using SafeMath for uint;\r\n    enum Status {Asked, Answered, WinnerPicked, Redeemed}\r\n    Status public status;\r\n    \r\n    address public factory;\r\n    string public question;\r\n    uint public deadline;\r\n    uint public selectedAnswerIndex;\r\n    uint public reward;\r\n    \r\n  \r\n    struct Answer {\r\n        string description;\r\n        address answerer;\r\n    }\r\n    \r\n    Answer[] public answers;\r\n    \r\n    /** @dev Creates a question\r\n      * @param _factory Dora factory address\r\n      * @param _creator Who asks the question\r\n      * @param _question Question\r\n     */    \r\n    constructor(address _factory, address _creator, string _question) public payable {\r\n        factory = _factory;\r\n        transferOwnership(_creator);\r\n        question = _question;\r\n        status = Status.Asked;\r\n        // 10% of sent ether is deposit\r\n        reward = (msg.value.div(11).mul(10));\r\n        // deadline in one week\r\n        deadline = now.add(5 minutes);\r\n    \r\n    }\r\n       \r\n     /** @dev Post answer to question\r\n      * @param _answer Answer\r\n     */ \r\n    function postAnswer (string _answer) public {\r\n    // Can only answer if winner not picked already\r\n        require(status != Status.WinnerPicked, \"Winner has been picked already\"); \r\n    // Add answer to answers array\r\n        Answer memory newAnswer = Answer({\r\n            description: _answer,\r\n            answerer: msg.sender\r\n        });\r\n        \r\n        answers.push(newAnswer);\r\n    // Change status to answered\r\n        if (status != Status.Answered) status = Status.Answered;\r\n    \r\n    // Emit event in Factory\r\n        DoraFactory(factory).registerAnswered(address(this), msg.sender, (answers.length-1));\r\n\r\n    }  \r\n    \r\n    /** @dev Selects best answer\r\n      * @param _index Index of answers array\r\n    */\r\n    function pickWinner(uint _index) public onlyOwner() {\r\n        require(status != Status.WinnerPicked, \"Winner has been picked already\");\r\n        require(now > deadline, \"Too early to pick winner\");\r\n    // set status to Winner picked\r\n        status = Status.WinnerPicked;\r\n    // set selected answers\r\n        selectedAnswerIndex = _index;\r\n\r\n    // Transfer deposit (10% of reward) back to creator\r\n        owner().transfer(reward.div(100).mul(10));\r\n        \r\n    // register in factory that winner is picked\r\n        DoraFactory(factory).registerWinner(address(this), msg.sender, _index);\r\n    \r\n    }\r\n\r\n    /** @dev Winner can withdraw reward\r\n    */\r\n    function withdrawReward() public {\r\n        require(status == Status.WinnerPicked, \"Winner has not been picked\");\r\n        require(msg.sender == answers[selectedAnswerIndex].answerer, \"Did not provide winning answer\");\r\n        //Set status to reward redeemed\r\n        status = Status.Redeemed;\r\n\r\n        //Transfer reward to winner\r\n        msg.sender.transfer(address(this).balance);\r\n    }\r\n\r\n    /** @dev Owner can withdraw reward and deposit if nobody answered\r\n    */\r\n    function withdrawDepositReward() public onlyOwner {\r\n        require(status == Status.Asked, \"Someone answered question\");\r\n        //Set status to reward redeemed\r\n        status = Status.Redeemed;\r\n\r\n        //Transfer reward to winner\r\n        msg.sender.transfer(address(this).balance);\r\n    }\r\n\r\n    /** @dev Gets best answer and address of answerer\r\n      * @return answer which cerator of question selected\r\n      * @return address of answerer\r\n     */\r\n    function winner() public view returns (string answer, address answerer) {\r\n        require(status == Status.WinnerPicked, \"Winner has not been picked\");\r\n        answer = answers[selectedAnswerIndex].description;\r\n        answerer = answers[selectedAnswerIndex].answerer;\r\n    }\r\n\r\n    /** @dev Gets other details than question\r\n      * @return reward\r\n      * @return deadline\r\n      * @return status\r\n      * @return answers count\r\n      * @return selected answer index\r\n     */\r\n    function getSummary() public view returns (string, uint, uint, Status, uint, uint) {\r\n        return (question, reward, deadline, status, answers.length, selectedAnswerIndex);\r\n    }\r\n    \r\n\r\n    /** @dev Gets number of answers\r\n      * @return answer count\r\n     */\r\n    function getAnswerCount() public view returns (uint) {\r\n        return answers.length;\r\n    }\r\n\r\n\r\n}",
  "sourcePath": "C:\\Users\\Jan\\bootcamp\\final-project-hochbruj\\contracts\\Dora.sol",
  "compiler": {
    "name": "solc",
    "version": "0.4.24+commit.e67f0147.Emscripten.clang"
  },
  "schemaVersion": "2.0.1",
  "updatedAt": "2019-01-02T09:31:51.916Z"
}